{
  "contractName": "ResContract",
  "abi": [
    {
      "constant": true,
      "inputs": [],
      "name": "availabilityCount",
      "outputs": [
        {
          "name": "",
          "type": "uint256"
        }
      ],
      "payable": false,
      "stateMutability": "view",
      "type": "function"
    },
    {
      "constant": true,
      "inputs": [
        {
          "name": "",
          "type": "uint256"
        }
      ],
      "name": "availabilities",
      "outputs": [
        {
          "name": "_provider",
          "type": "address"
        },
        {
          "name": "_booker",
          "type": "address"
        },
        {
          "name": "_resourceId",
          "type": "uint256"
        },
        {
          "name": "_type",
          "type": "uint256"
        },
        {
          "name": "_minDeposit",
          "type": "uint256"
        },
        {
          "name": "_commission",
          "type": "uint256"
        },
        {
          "name": "_freeCancelDateTs",
          "type": "uint256"
        },
        {
          "name": "_startDateTs",
          "type": "uint256"
        },
        {
          "name": "_endDateTs",
          "type": "uint256"
        },
        {
          "name": "_bookingStatus",
          "type": "uint8"
        },
        {
          "name": "_metaDataLink",
          "type": "bytes32"
        }
      ],
      "payable": false,
      "stateMutability": "view",
      "type": "function"
    },
    {
      "inputs": [
        {
          "name": "contractAddress",
          "type": "address"
        }
      ],
      "payable": false,
      "stateMutability": "nonpayable",
      "type": "constructor"
    },
    {
      "constant": false,
      "inputs": [
        {
          "name": "_type",
          "type": "uint256"
        },
        {
          "name": "_minDeposit",
          "type": "uint256"
        },
        {
          "name": "_commission",
          "type": "uint256"
        },
        {
          "name": "_freeCancelDateTs",
          "type": "uint256"
        },
        {
          "name": "_startDateTs",
          "type": "uint256"
        },
        {
          "name": "_endDateTs",
          "type": "uint256"
        },
        {
          "name": "_bookingStatus",
          "type": "uint8"
        },
        {
          "name": "_metaDataLink",
          "type": "bytes32"
        }
      ],
      "name": "publishAvailability",
      "outputs": [
        {
          "name": "status",
          "type": "uint8"
        }
      ],
      "payable": false,
      "stateMutability": "nonpayable",
      "type": "function"
    },
    {
      "constant": true,
      "inputs": [],
      "name": "listAvailabilitiesOverview",
      "outputs": [
        {
          "name": "",
          "type": "uint256[]"
        },
        {
          "name": "",
          "type": "address[]"
        },
        {
          "name": "",
          "type": "address[]"
        },
        {
          "name": "",
          "type": "uint256[]"
        },
        {
          "name": "",
          "type": "uint256[]"
        },
        {
          "name": "",
          "type": "uint8[]"
        }
      ],
      "payable": false,
      "stateMutability": "view",
      "type": "function"
    },
    {
      "constant": true,
      "inputs": [
        {
          "name": "availabilityNumber",
          "type": "uint256"
        }
      ],
      "name": "listAvailabilityDetails",
      "outputs": [
        {
          "name": "",
          "type": "uint256"
        },
        {
          "name": "",
          "type": "uint256"
        },
        {
          "name": "",
          "type": "uint256"
        },
        {
          "name": "",
          "type": "uint256"
        },
        {
          "name": "",
          "type": "uint8"
        },
        {
          "name": "",
          "type": "bytes32"
        }
      ],
      "payable": false,
      "stateMutability": "view",
      "type": "function"
    },
    {
      "constant": false,
      "inputs": [
        {
          "name": "availabilityNumber",
          "type": "uint256"
        }
      ],
      "name": "requestAvailability",
      "outputs": [
        {
          "name": "",
          "type": "uint8"
        }
      ],
      "payable": false,
      "stateMutability": "nonpayable",
      "type": "function"
    },
    {
      "constant": false,
      "inputs": [
        {
          "name": "availabilityNumber",
          "type": "uint256"
        }
      ],
      "name": "rejectAvailability",
      "outputs": [
        {
          "name": "",
          "type": "uint8"
        }
      ],
      "payable": false,
      "stateMutability": "nonpayable",
      "type": "function"
    },
    {
      "constant": false,
      "inputs": [
        {
          "name": "availabilityNumber",
          "type": "uint256"
        }
      ],
      "name": "confirmAvailability",
      "outputs": [
        {
          "name": "",
          "type": "uint8"
        }
      ],
      "payable": false,
      "stateMutability": "nonpayable",
      "type": "function"
    },
    {
      "constant": false,
      "inputs": [
        {
          "name": "availabilityNumber",
          "type": "uint256"
        }
      ],
      "name": "cancelAvailability",
      "outputs": [
        {
          "name": "",
          "type": "uint8"
        }
      ],
      "payable": false,
      "stateMutability": "nonpayable",
      "type": "function"
    },
    {
      "constant": false,
      "inputs": [
        {
          "name": "availabilityNumber",
          "type": "uint256"
        },
        {
          "name": "_type",
          "type": "uint256"
        },
        {
          "name": "_minDeposit",
          "type": "uint256"
        },
        {
          "name": "_commission",
          "type": "uint256"
        },
        {
          "name": "_freeCancelDateTs",
          "type": "uint256"
        },
        {
          "name": "_startDateTs",
          "type": "uint256"
        },
        {
          "name": "_endDateTs",
          "type": "uint256"
        },
        {
          "name": "_bookingStatus",
          "type": "uint8"
        },
        {
          "name": "_metaDataLink",
          "type": "bytes32"
        }
      ],
      "name": "updateAvailability",
      "outputs": [
        {
          "name": "status",
          "type": "bool"
        }
      ],
      "payable": false,
      "stateMutability": "nonpayable",
      "type": "function"
    }
  ],
  "bytecode": "0x6060604052341561000f57600080fd5b60405160208061191d8339810160405280805190602001909190505080600160006101000a81548173ffffffffffffffffffffffffffffffffffffffff021916908373ffffffffffffffffffffffffffffffffffffffff160217905550506118a18061007c6000396000f3006060604052600436106100a4576000357c0100000000000000000000000000000000000000000000000000000000900463ffffffff168063053d7ff2146100a957806309d347621461011957806324867a37146101425780634866e0001461018757806361d7eb531461021257806371538b00146102fd5780639eeb392214610342578063aaa045fe14610387578063be8dce6e146103cc578063e103381d14610456575b600080fd5b34156100b457600080fd5b6100ca6004808035906020019091905050610628565b604051808781526020018681526020018581526020018481526020018360048111156100f257fe5b60ff1681526020018260001916600019168152602001965050505050505060405180910390f35b341561012457600080fd5b61012c6106e3565b6040518082815260200191505060405180910390f35b341561014d57600080fd5b61016360048080359060200190919050506106e9565b6040518082600481111561017357fe5b60ff16815260200191505060405180910390f35b341561019257600080fd5b6101ee600480803590602001909190803590602001909190803590602001909190803590602001909190803590602001909190803590602001909190803560ff169060200190919080356000191690602001909190505061097a565b604051808260048111156101fe57fe5b60ff16815260200191505060405180910390f35b341561021d57600080fd5b6102336004808035906020019091905050610b62565b604051808c73ffffffffffffffffffffffffffffffffffffffff1673ffffffffffffffffffffffffffffffffffffffff1681526020018b73ffffffffffffffffffffffffffffffffffffffff1673ffffffffffffffffffffffffffffffffffffffff1681526020018a81526020018981526020018881526020018781526020018681526020018581526020018481526020018360048111156102d157fe5b60ff16815260200182600019166000191681526020019b50505050505050505050505060405180910390f35b341561030857600080fd5b61031e6004808035906020019091905050610c09565b6040518082600481111561032e57fe5b60ff16815260200191505060405180910390f35b341561034d57600080fd5b6103636004808035906020019091905050610df7565b6040518082600481111561037357fe5b60ff16815260200191505060405180910390f35b341561039257600080fd5b6103a860048080359060200190919050506110bf565b604051808260048111156103b857fe5b60ff16815260200191505060405180910390f35b34156103d757600080fd5b61043c600480803590602001909190803590602001909190803590602001909190803590602001909190803590602001909190803590602001909190803590602001909190803560ff16906020019091908035600019169060200190919050506112ae565b604051808215151515815260200191505060405180910390f35b341561046157600080fd5b61046961142d565b6040518080602001806020018060200180602001806020018060200187810387528d818151815260200191508051906020019060200280838360005b838110156104c05780820151818401526020810190506104a5565b5050505090500187810386528c818151815260200191508051906020019060200280838360005b838110156105025780820151818401526020810190506104e7565b5050505090500187810385528b818151815260200191508051906020019060200280838360005b83811015610544578082015181840152602081019050610529565b5050505090500187810384528a818151815260200191508051906020019060200280838360005b8381101561058657808201518184015260208101905061056b565b50505050905001878103835289818151815260200191508051906020019060200280838360005b838110156105c85780820151818401526020810190506105ad565b50505050905001878103825288818151815260200191508051906020019060200280838360005b8381101561060a5780820151818401526020810190506105ef565b505050509050019c5050505050505050505050505060405180910390f35b6000806000806000806000806000806000600360008d8152602001908152602001600020600401549450600360008d8152602001908152602001600020600501549350600360008d8152602001908152602001600020600601549250600360008d815260200190815260200160002060090160009054906101000a900460ff169150600360008d8152602001908152602001600020600a015490508b85858585859a509a509a509a509a509a50505050505091939550919395565b60025481565b6000600160009054906101000a900473ffffffffffffffffffffffffffffffffffffffff1673ffffffffffffffffffffffffffffffffffffffff1663a2f33fac83336003600087815260200190815260200160002060000160009054906101000a900473ffffffffffffffffffffffffffffffffffffffff16600360008881526020019081526020016000206004015460036000898152602001908152602001600020600501546000604051602001526040518663ffffffff167c0100000000000000000000000000000000000000000000000000000000028152600401808681526020018573ffffffffffffffffffffffffffffffffffffffff1673ffffffffffffffffffffffffffffffffffffffff1681526020018473ffffffffffffffffffffffffffffffffffffffff1673ffffffffffffffffffffffffffffffffffffffff16815260200183815260200182815260200195505050505050602060405180830381600087803b151561085e57600080fd5b6102c65a03f1151561086f57600080fd5b505050604051805190501561094f576000600481111561088b57fe5b6003600084815260200190815260200160002060090160009054906101000a900460ff1660048111156108ba57fe5b141561094e5760016003600084815260200190815260200160002060090160006101000a81548160ff021916908360048111156108f357fe5b0217905550336003600084815260200190815260200160002060010160006101000a81548173ffffffffffffffffffffffffffffffffffffffff021916908373ffffffffffffffffffffffffffffffffffffffff1602179055505b5b6003600083815260200190815260200160002060090160009054906101000a900460ff169050919050565b60008787111561098d5760029050610b56565b610160604051908101604052803373ffffffffffffffffffffffffffffffffffffffff168152602001600073ffffffffffffffffffffffffffffffffffffffff16815260200160025481526020018a8152602001898152602001888152602001878152602001868152602001858152602001846004811115610a0b57fe5b8152602001836000191681525060036000600254815260200190815260200160002060008201518160000160006101000a81548173ffffffffffffffffffffffffffffffffffffffff021916908373ffffffffffffffffffffffffffffffffffffffff16021790555060208201518160010160006101000a81548173ffffffffffffffffffffffffffffffffffffffff021916908373ffffffffffffffffffffffffffffffffffffffff16021790555060408201518160020155606082015181600301556080820151816004015560a0820151816005015560c0820151816006015560e0820151816007015561010082015181600801556101208201518160090160006101000a81548160ff02191690836004811115610b2757fe5b021790555061014082015181600a01906000191690559050506002600081548092919060010191905055508290505b98975050505050505050565b60036020528060005260406000206000915090508060000160009054906101000a900473ffffffffffffffffffffffffffffffffffffffff16908060010160009054906101000a900473ffffffffffffffffffffffffffffffffffffffff16908060020154908060030154908060040154908060050154908060060154908060070154908060080154908060090160009054906101000a900460ff169080600a015490508b565b60003373ffffffffffffffffffffffffffffffffffffffff166003600084815260200190815260200160002060000160009054906101000a900473ffffffffffffffffffffffffffffffffffffffff1673ffffffffffffffffffffffffffffffffffffffff161415610dcc57600160009054906101000a900473ffffffffffffffffffffffffffffffffffffffff1673ffffffffffffffffffffffffffffffffffffffff16636c6eac20836003600086815260200190815260200160002060010160009054906101000a900473ffffffffffffffffffffffffffffffffffffffff166000604051602001526040518363ffffffff167c0100000000000000000000000000000000000000000000000000000000028152600401808381526020018273ffffffffffffffffffffffffffffffffffffffff1673ffffffffffffffffffffffffffffffffffffffff16815260200192505050602060405180830381600087803b1515610d7857600080fd5b6102c65a03f11515610d8957600080fd5b5050506040518051905050600380600084815260200190815260200160002060090160006101000a81548160ff02191690836004811115610dc657fe5b02179055505b6003600083815260200190815260200160002060090160009054906101000a900460ff169050919050565b60003373ffffffffffffffffffffffffffffffffffffffff166003600084815260200190815260200160002060000160009054906101000a900473ffffffffffffffffffffffffffffffffffffffff1673ffffffffffffffffffffffffffffffffffffffff161415611094574260036000848152602001908152602001600020600601541115610f3b57600160009054906101000a900473ffffffffffffffffffffffffffffffffffffffff1673ffffffffffffffffffffffffffffffffffffffff1663421ccb06836000604051602001526040518263ffffffff167c010000000000000000000000000000000000000000000000000000000002815260040180828152602001915050602060405180830381600087803b1515610f1a57600080fd5b6102c65a03f11515610f2b57600080fd5b505050604051805190505061105b565b600160009054906101000a900473ffffffffffffffffffffffffffffffffffffffff1673ffffffffffffffffffffffffffffffffffffffff16636c6eac20836003600086815260200190815260200160002060010160009054906101000a900473ffffffffffffffffffffffffffffffffffffffff166000604051602001526040518363ffffffff167c0100000000000000000000000000000000000000000000000000000000028152600401808381526020018273ffffffffffffffffffffffffffffffffffffffff1673ffffffffffffffffffffffffffffffffffffffff16815260200192505050602060405180830381600087803b151561103e57600080fd5b6102c65a03f1151561104f57600080fd5b50505060405180519050505b60046003600084815260200190815260200160002060090160006101000a81548160ff0219169083600481111561108e57fe5b02179055505b6003600083815260200190815260200160002060090160009054906101000a900460ff169050919050565b60003373ffffffffffffffffffffffffffffffffffffffff166003600084815260200190815260200160002060000160009054906101000a900473ffffffffffffffffffffffffffffffffffffffff1673ffffffffffffffffffffffffffffffffffffffff16141561128357600160009054906101000a900473ffffffffffffffffffffffffffffffffffffffff1673ffffffffffffffffffffffffffffffffffffffff16636c6eac20836003600086815260200190815260200160002060010160009054906101000a900473ffffffffffffffffffffffffffffffffffffffff166000604051602001526040518363ffffffff167c0100000000000000000000000000000000000000000000000000000000028152600401808381526020018273ffffffffffffffffffffffffffffffffffffffff1673ffffffffffffffffffffffffffffffffffffffff16815260200192505050602060405180830381600087803b151561122e57600080fd5b6102c65a03f1151561123f57600080fd5b505050604051805190505060026003600084815260200190815260200160002060090160006101000a81548160ff0219169083600481111561127d57fe5b02179055505b6003600083815260200190815260200160002060090160009054906101000a900460ff169050919050565b60003373ffffffffffffffffffffffffffffffffffffffff16600360008c815260200190815260200160002060000160009054906101000a900473ffffffffffffffffffffffffffffffffffffffff1673ffffffffffffffffffffffffffffffffffffffff16141561141b5788600360008c81526020019081526020016000206003018190555087600360008c81526020019081526020016000206004018190555086600360008c81526020019081526020016000206005018190555085600360008c81526020019081526020016000206006018190555084600360008c81526020019081526020016000206007018190555083600360008c81526020019081526020016000206008018190555082600360008c815260200190815260200160002060090160006101000a81548160ff021916908360048111156113ee57fe5b021790555081600360008c8152602001908152602001600020600a01816000191690555060019050611420565b600090505b9998505050505050505050565b611435611839565b61143d61184d565b61144561184d565b61144d611839565b611455611839565b61145d611861565b611465611839565b61146d61184d565b61147561184d565b61147d611839565b611485611839565b61148d611839565b611495611839565b61149d611861565b60006002546040518059106114af5750595b908082528060200260200182016040525098506002546040518059106114d25750595b908082528060200260200182016040525097506002546040518059106114f55750595b908082528060200260200182016040525096506002546040518059106115185750595b9080825280602002602001820160405250955060025460405180591061153b5750595b9080825280602002602001820160405250945060025460405180591061155e5750595b908082528060200260200182016040525093506002546040518059106115815750595b908082528060200260200182016040525092506002546040518059106115a45750595b90808252806020026020018201604052509150600090505b600254811015611816578089828151811015156115d557fe5b90602001906020020181815250506003600082815260200190815260200160002060000160009054906101000a900473ffffffffffffffffffffffffffffffffffffffff16888281518110151561162857fe5b9060200190602002019073ffffffffffffffffffffffffffffffffffffffff16908173ffffffffffffffffffffffffffffffffffffffff16815250506003600082815260200190815260200160002060010160009054906101000a900473ffffffffffffffffffffffffffffffffffffffff1687828151811015156116a957fe5b9060200190602002019073ffffffffffffffffffffffffffffffffffffffff16908173ffffffffffffffffffffffffffffffffffffffff16815250506003600082815260200190815260200160002060020154868281518110151561170a57fe5b90602001906020020181815250506003600082815260200190815260200160002060030154858281518110151561173d57fe5b90602001906020020181815250506003600082815260200190815260200160002060070154848281518110151561177057fe5b9060200190602002018181525050600360008281526020019081526020016000206008015483828151811015156117a357fe5b90602001906020020181815250506003600082815260200190815260200160002060090160009054906101000a900460ff1682828151811015156117e357fe5b9060200190602002019060048111156117f857fe5b9081600481111561180557fe5b8152505080806001019150506115bc565b8888888888869e509e509e509e509e509e50505050505050505050909192939495565b602060405190810160405280600081525090565b602060405190810160405280600081525090565b6020604051908101604052806000815250905600a165627a7a72305820fbd7169fbe561f8dc33f41e3e5e5263e5e65767e63a8b0fa4e8be96db41867990029",
  "source": "pragma solidity ^0.4.2;\r\n\r\nimport \"./TokenBTU.sol\";\r\n\r\n/* Availabilities implementation */\r\ncontract ResContract {\r\n    \r\n    address                                 owner;\r\n    TokenBTU                                BTU;\r\n    uint public                             availabilityCount;\r\n    mapping (uint => Availability) public   availabilities;\r\n\r\n    enum BookingStatus { AVAILABLE, REQUESTED, REJECTED, CONFIRMED, CANCELLED }\r\n    struct Availability {\r\n        address                 _provider;  // address of the provider\r\n        address                 _booker;    // address of the booker\r\n        uint                    _resourceId ;   // resource id OR bundle id\r\n        uint                    _type;   // Type of Availability\r\n        uint                    _minDeposit ; // minimum BTU deposit for booking this resource\r\n        uint                    _commission ; // commission amount paid to booker in BTU\r\n        uint                    _freeCancelDateTs; // Limit date for a reservation cancellation\r\n        uint                    _startDateTs;   //availability start date timestamps\r\n        uint                    _endDateTs;   //availability end date timestamps\r\n        BookingStatus           _bookingStatus ; // reservation status\r\n        bytes32                 _metaDataLink; //metadatas\r\n    }\r\n\r\n    function ResContract(address contractAddress) public {\r\n        BTU = TokenBTU(contractAddress);\r\n    }\r\n\r\n    //Submit one availability\r\n    function publishAvailability (uint _type, uint _minDeposit, uint _commission, \r\n                                  uint _freeCancelDateTs, uint _startDateTs, \r\n                                  uint _endDateTs, BookingStatus _bookingStatus, bytes32 _metaDataLink)\r\n    public returns (BookingStatus status) \r\n    {\r\n        if (_commission > _minDeposit) {\r\n            return BookingStatus.REJECTED;\r\n        }\r\n        availabilities[availabilityCount] = Availability(msg.sender, 0x0, availabilityCount, _type, _minDeposit,\r\n                                                         _commission, _freeCancelDateTs, _startDateTs, _endDateTs,\r\n                                                         _bookingStatus, _metaDataLink);\r\n        availabilityCount++;\r\n        return _bookingStatus;\r\n    }\r\n\r\n    //An overview of all availabilities\r\n    function listAvailabilitiesOverview ()\r\n    public constant returns (uint[], address[], address[], \r\n                             uint[], uint[], BookingStatus[])\r\n    {\r\n        uint[] memory           keys = new uint[](availabilityCount);\r\n        address[] memory        providers = new address[](availabilityCount);\r\n        address[] memory        bookers = new address[](availabilityCount);\r\n        uint[] memory           resourceIds = new uint[](availabilityCount);\r\n        uint[] memory           types = new uint[](availabilityCount);\r\n        uint[] memory           startDateTs = new uint[](availabilityCount);\r\n        uint[] memory           endDateTs = new uint[](availabilityCount);\r\n        BookingStatus[] memory  bookingStatuses = new BookingStatus[](availabilityCount);\r\n\r\n        for (uint i = 0 ; i < availabilityCount ; i++) {\r\n            keys[i] = i;\r\n            providers[i] = availabilities[i]._provider;\r\n            bookers[i] = availabilities[i]._booker;\r\n            resourceIds[i] = availabilities[i]._resourceId;\r\n            types[i] = availabilities[i]._type;\r\n            startDateTs[i] = availabilities[i]._startDateTs;\r\n            endDateTs[i] = availabilities[i]._endDateTs;\r\n            bookingStatuses[i] = availabilities[i]._bookingStatus;\r\n        }\r\n        return (keys, providers, bookers,\r\n                resourceIds, types, bookingStatuses);\r\n    }\r\n\r\n    //All details from one availability\r\n    function listAvailabilityDetails (uint availabilityNumber)\r\n    public constant returns (uint, uint, uint,\r\n                             uint, BookingStatus, bytes32)\r\n    {\r\n        uint                    minDeposit;\r\n        uint                    commission;\r\n        uint                    freeCancelDateTs;\r\n        BookingStatus           bookingStatus;\r\n        bytes32                 metaDataLink;\r\n\r\n        minDeposit = availabilities[availabilityNumber]._minDeposit;\r\n        commission = availabilities[availabilityNumber]._commission;\r\n        freeCancelDateTs = availabilities[availabilityNumber]._freeCancelDateTs;\r\n        bookingStatus = availabilities[availabilityNumber]._bookingStatus;\r\n        metaDataLink = availabilities[availabilityNumber]._metaDataLink;\r\n        return (availabilityNumber, minDeposit, commission, \r\n                freeCancelDateTs, bookingStatus, metaDataLink);\r\n    }\r\n\r\n    //Request reservation\r\n    /* TO-ADD\r\n     * BTU Logic :\r\n     * BTU escrows deposit amount\r\n     */\r\n    function requestAvailability (uint availabilityNumber)\r\n    public returns (BookingStatus)\r\n    {\r\n        if (BTU.escrowAmount(availabilityNumber, msg.sender,\r\n                             availabilities[availabilityNumber]._provider, \r\n                             availabilities[availabilityNumber]._minDeposit,\r\n                             availabilities[availabilityNumber]._commission))\r\n        {\r\n            if (availabilities[availabilityNumber]._bookingStatus == BookingStatus.AVAILABLE) {\r\n                availabilities[availabilityNumber]._bookingStatus = BookingStatus.REQUESTED;\r\n                availabilities[availabilityNumber]._booker = msg.sender;\r\n            }\r\n        }\r\n        return (availabilities[availabilityNumber]._bookingStatus);\r\n    }\r\n\r\n    //reject reservation\r\n    /* TO-ADD\r\n     * BTU Logic :\r\n     * BTU gives deposit amount back to booker\r\n     */\r\n    function rejectAvailability (uint availabilityNumber)\r\n    public returns (BookingStatus)\r\n    {\r\n        if (availabilities[availabilityNumber]._provider == msg.sender) {\r\n            BTU.escrowBackToAccount(availabilityNumber, availabilities[availabilityNumber]._booker);\r\n            availabilities[availabilityNumber]._bookingStatus = BookingStatus.REJECTED;\r\n        }\r\n        return (availabilities[availabilityNumber]._bookingStatus);\r\n    }\r\n\r\n    //confirm reservation\r\n    /* TO-ADD\r\n     * BTU Logic :\r\n     * BTU gives back to the booker \r\n     */\r\n    function confirmAvailability (uint availabilityNumber)\r\n    public returns (BookingStatus)\r\n    {\r\n        if (availabilities[availabilityNumber]._provider == msg.sender) {\r\n            BTU.escrowBackToAccount(availabilityNumber, availabilities[availabilityNumber]._booker);\r\n            availabilities[availabilityNumber]._bookingStatus = BookingStatus.CONFIRMED;\r\n        }\r\n        return (availabilities[availabilityNumber]._bookingStatus);\r\n    }\r\n\r\n    //cancel reservation\r\n    /* TO-ADD\r\n     * BTU Logic :\r\n     * IF BEFORE CANCEL DATE : BTU gives back deposit amount to booker\r\n     * IF AFTER CANCEL DATE : BTU gives back deposit amount to provider\r\n     */\r\n    function cancelAvailability (uint availabilityNumber)\r\n    public returns (BookingStatus)\r\n    {\r\n        if (availabilities[availabilityNumber]._provider == msg.sender) {\r\n            if (availabilities[availabilityNumber]._freeCancelDateTs > now) {\r\n                BTU.escrowResolveDispute(availabilityNumber);\r\n            } else {\r\n                BTU.escrowBackToAccount(availabilityNumber, availabilities[availabilityNumber]._booker);\r\n            }\r\n            availabilities[availabilityNumber]._bookingStatus = BookingStatus.CANCELLED;\r\n        }\r\n        return (availabilities[availabilityNumber]._bookingStatus);\r\n    }\r\n\r\n    //Update reservation\r\n    function updateAvailability (uint availabilityNumber, uint _type, uint _minDeposit, uint _commission, \r\n                                 uint _freeCancelDateTs, uint _startDateTs, \r\n                                 uint _endDateTs, BookingStatus _bookingStatus, bytes32 _metaDataLink)\r\n    public returns (bool status) \r\n    {\r\n        if (availabilities[availabilityNumber]._provider == msg.sender) {\r\n            availabilities[availabilityNumber]._type = _type;\r\n            availabilities[availabilityNumber]._minDeposit = _minDeposit;\r\n            availabilities[availabilityNumber]._commission = _commission;\r\n            availabilities[availabilityNumber]._freeCancelDateTs = _freeCancelDateTs;\r\n            availabilities[availabilityNumber]._startDateTs = _startDateTs;\r\n            availabilities[availabilityNumber]._endDateTs = _endDateTs;\r\n            availabilities[availabilityNumber]._bookingStatus = _bookingStatus;\r\n            availabilities[availabilityNumber]._metaDataLink = _metaDataLink;\r\n            return true;\r\n        }\r\n        return false;\r\n    }\r\n}",
  "sourcePath": "D:\\Developpement\\mccp\\contracts\\ResContract.sol",
  "compiler": {
    "name": "solc",
    "version": "0.4.19+commit.c4cbbb05.Emscripten.clang"
  },
  "schemaVersion": "1.0.1",
  "updatedAt": "2018-02-23T08:58:21.247Z"
}